{
  "contractName": "Test01",
  "abi": [
    {
      "anonymous": false,
      "inputs": [
        {
          "indexed": false,
          "internalType": "address",
          "name": "farmer",
          "type": "address"
        },
        {
          "indexed": false,
          "internalType": "string",
          "name": "farmerName",
          "type": "string"
        }
      ],
      "name": "FarmerRegistered",
      "type": "event"
    },
    {
      "anonymous": false,
      "inputs": [
        {
          "indexed": false,
          "internalType": "uint256",
          "name": "productId",
          "type": "uint256"
        },
        {
          "indexed": false,
          "internalType": "string",
          "name": "productName",
          "type": "string"
        }
      ],
      "name": "ProductAdded",
      "type": "event"
    },
    {
      "anonymous": false,
      "inputs": [
        {
          "indexed": false,
          "internalType": "uint256",
          "name": "productId",
          "type": "uint256"
        },
        {
          "indexed": false,
          "internalType": "string",
          "name": "updatedBy",
          "type": "string"
        }
      ],
      "name": "ProductUpdated",
      "type": "event"
    },
    {
      "inputs": [],
      "name": "productCounter",
      "outputs": [
        {
          "internalType": "uint256",
          "name": "",
          "type": "uint256"
        }
      ],
      "stateMutability": "view",
      "type": "function",
      "constant": true
    },
    {
      "inputs": [
        {
          "internalType": "uint256",
          "name": "",
          "type": "uint256"
        }
      ],
      "name": "products",
      "outputs": [
        {
          "internalType": "uint256",
          "name": "productId",
          "type": "uint256"
        },
        {
          "internalType": "string",
          "name": "productName",
          "type": "string"
        },
        {
          "internalType": "string",
          "name": "imageHash",
          "type": "string"
        },
        {
          "internalType": "string",
          "name": "plantingDate",
          "type": "string"
        },
        {
          "internalType": "string",
          "name": "harvestDate",
          "type": "string"
        },
        {
          "internalType": "string",
          "name": "farmerName",
          "type": "string"
        },
        {
          "internalType": "string",
          "name": "distributorName",
          "type": "string"
        },
        {
          "internalType": "string",
          "name": "retailerName",
          "type": "string"
        },
        {
          "internalType": "uint256",
          "name": "productWeight",
          "type": "uint256"
        },
        {
          "internalType": "enum Test01.ProductStatus",
          "name": "status",
          "type": "uint8"
        }
      ],
      "stateMutability": "view",
      "type": "function",
      "constant": true
    },
    {
      "inputs": [
        {
          "internalType": "address",
          "name": "",
          "type": "address"
        }
      ],
      "name": "users",
      "outputs": [
        {
          "internalType": "string",
          "name": "userName",
          "type": "string"
        },
        {
          "internalType": "string",
          "name": "role",
          "type": "string"
        },
        {
          "internalType": "bool",
          "name": "isRegistered",
          "type": "bool"
        }
      ],
      "stateMutability": "view",
      "type": "function",
      "constant": true
    },
    {
      "inputs": [
        {
          "internalType": "address",
          "name": "_userAddress",
          "type": "address"
        }
      ],
      "name": "getUserInfo",
      "outputs": [
        {
          "internalType": "string",
          "name": "",
          "type": "string"
        },
        {
          "internalType": "string",
          "name": "",
          "type": "string"
        }
      ],
      "stateMutability": "view",
      "type": "function",
      "constant": true
    },
    {
      "inputs": [
        {
          "internalType": "string",
          "name": "_userName",
          "type": "string"
        },
        {
          "internalType": "string",
          "name": "_role",
          "type": "string"
        }
      ],
      "name": "registerUser",
      "outputs": [],
      "stateMutability": "nonpayable",
      "type": "function"
    },
    {
      "inputs": [
        {
          "internalType": "string",
          "name": "_imageHash",
          "type": "string"
        },
        {
          "internalType": "string",
          "name": "_productName",
          "type": "string"
        },
        {
          "internalType": "string",
          "name": "_plantingDate",
          "type": "string"
        },
        {
          "internalType": "string",
          "name": "_harvestDate",
          "type": "string"
        },
        {
          "internalType": "string",
          "name": "_farmerName",
          "type": "string"
        }
      ],
      "name": "addProduct",
      "outputs": [],
      "stateMutability": "nonpayable",
      "type": "function"
    },
    {
      "inputs": [
        {
          "internalType": "uint256",
          "name": "_productId",
          "type": "uint256"
        },
        {
          "internalType": "string",
          "name": "_distributorName",
          "type": "string"
        },
        {
          "internalType": "uint256",
          "name": "_productWeight",
          "type": "uint256"
        }
      ],
      "name": "updateDistributorInfo",
      "outputs": [],
      "stateMutability": "nonpayable",
      "type": "function"
    },
    {
      "inputs": [
        {
          "internalType": "uint256",
          "name": "_productId",
          "type": "uint256"
        },
        {
          "internalType": "string",
          "name": "_retailerName",
          "type": "string"
        }
      ],
      "name": "updateRetailerInfo",
      "outputs": [],
      "stateMutability": "nonpayable",
      "type": "function"
    },
    {
      "inputs": [
        {
          "internalType": "uint256",
          "name": "_productId",
          "type": "uint256"
        }
      ],
      "name": "getProductInfo",
      "outputs": [
        {
          "components": [
            {
              "internalType": "uint256",
              "name": "productId",
              "type": "uint256"
            },
            {
              "internalType": "string",
              "name": "productName",
              "type": "string"
            },
            {
              "internalType": "string",
              "name": "imageHash",
              "type": "string"
            },
            {
              "internalType": "string",
              "name": "plantingDate",
              "type": "string"
            },
            {
              "internalType": "string",
              "name": "harvestDate",
              "type": "string"
            },
            {
              "internalType": "string",
              "name": "farmerName",
              "type": "string"
            },
            {
              "internalType": "string",
              "name": "distributorName",
              "type": "string"
            },
            {
              "internalType": "string",
              "name": "retailerName",
              "type": "string"
            },
            {
              "internalType": "uint256",
              "name": "productWeight",
              "type": "uint256"
            },
            {
              "internalType": "enum Test01.ProductStatus",
              "name": "status",
              "type": "uint8"
            }
          ],
          "internalType": "struct Test01.Product",
          "name": "",
          "type": "tuple"
        }
      ],
      "stateMutability": "view",
      "type": "function",
      "constant": true
    }
  ],
  "bytecode": "0x608060405234801561001057600080fd5b5061296b806100206000396000f3fe608060405234801561001057600080fd5b50600436106100935760003560e01c806379a85e6c1161006657806379a85e6c1461011f5780637acc0b201461014f578063a87430ba14610188578063c9e6db18146101ba578063ef6da8d4146101d657610093565b80631d2e4afd146100985780631f16653b146100b4578063217c80d2146100d25780636386c1c7146100ee575b600080fd5b6100b260048036038101906100ad9190611d2c565b6101f2565b005b6100bc610540565b6040516100c99190612536565b60405180910390f35b6100ec60048036038101906100e79190611eb0565b610546565b005b61010860048036038101906101039190611d03565b610810565b604051610116929190612418565b60405180910390f35b61013960048036038101906101349190611e87565b6109f8565b6040516101469190612514565b60405180910390f35b61016960048036038101906101649190611e87565b610f10565b60405161017f9a99989796959493929190612581565b60405180910390f35b6101a2600480360381019061019d9190611d03565b611329565b6040516101b19392919061244f565b60405180910390f35b6101d460048036038101906101cf9190611f04565b611470565b005b6101f060048036038101906101eb9190611d98565b611744565b005b600260003373ffffffffffffffffffffffffffffffffffffffff1673ffffffffffffffffffffffffffffffffffffffff16815260200190815260200160002060020160009054906101000a900460ff1615610282576040517f08c379a0000000000000000000000000000000000000000000000000000000008152600401610279906124d4565b60405180910390fd5b7f70c1216471c121e621e116e0411440fac67a4717bb0763c2de9016ac329d688f816040516020016102b4919061236b565b60405160208183030381529060405280519060200120148061031b57507f71c5a35e45a25c49e8f747acd4bcb869814b3d104c492d2554f4c46e12371f5781604051602001610303919061236b565b60405160208183030381529060405280519060200120145b8061036b57507f35720142b9ab11c25c53ca13befe9fb19c96957cb76a5f2f70547e5eb0c912d781604051602001610353919061236b565b60405160208183030381529060405280519060200120145b806103bb57507fd4af56a6cb216435050293f7c860ecd82c7b78b5ce1cf71dcb725bc26a5c8cab816040516020016103a3919061236b565b60405160208183030381529060405280519060200120145b6103fa576040517f08c379a00000000000000000000000000000000000000000000000000000000081526004016103f190612494565b60405180910390fd5b604051806060016040528083815260200182815260200160011515815250600260003373ffffffffffffffffffffffffffffffffffffffff1673ffffffffffffffffffffffffffffffffffffffff1681526020019081526020016000206000820151816000019080519060200190610473929190611b43565b506020820151816001019080519060200190610490929190611b43565b5060408201518160020160006101000a81548160ff0219169083151502179055509050507f70c1216471c121e621e116e0411440fac67a4717bb0763c2de9016ac329d688f816040516020016104e6919061236b565b60405160208183030381529060405280519060200120141561053c577f42558426a946ab6e527d7f548e7bd3e34c2a7ddde555007464cdfbb5f58665f833836040516105339291906123c6565b60405180910390a15b5050565b60005481565b600260003373ffffffffffffffffffffffffffffffffffffffff1673ffffffffffffffffffffffffffffffffffffffff16815260200190815260200160002060020160009054906101000a900460ff166105d5576040517f08c379a00000000000000000000000000000000000000000000000000000000081526004016105cc906124f4565b60405180910390fd5b6040518060400160405280600881526020017f72657461696c65720000000000000000000000000000000000000000000000008152508060405160200161061c919061236b565b60405160208183030381529060405280519060200120600260003373ffffffffffffffffffffffffffffffffffffffff1673ffffffffffffffffffffffffffffffffffffffff1681526020019081526020016000206001016040516020016106849190612382565b6040516020818303038152906040528051906020012014816040516020016106ac9190612399565b604051602081830303815290604052906106fc576040517f08c379a00000000000000000000000000000000000000000000000000000000081526004016106f391906123f6565b60405180910390fd5b5060008311801561070f57506000548311155b61074e576040517f08c379a0000000000000000000000000000000000000000000000000000000008152600401610745906124b4565b60405180910390fd5b60006001600085815260200190815260200160002090508281600701908051906020019061077d929190611b43565b5060038160090160006101000a81548160ff021916908360048111156107cc577f4e487b7100000000000000000000000000000000000000000000000000000000600052602160045260246000fd5b02179055507fdad7092ee1ca215307c34b5dd865bb1f9be7e1f0110d230eaefd78fa4742903e8484604051610802929190612551565b60405180910390a150505050565b6060806000600260008573ffffffffffffffffffffffffffffffffffffffff1673ffffffffffffffffffffffffffffffffffffffff16815260200190815260200160002060405180606001604052908160008201805461086f906127ab565b80601f016020809104026020016040519081016040528092919081815260200182805461089b906127ab565b80156108e85780601f106108bd576101008083540402835291602001916108e8565b820191906000526020600020905b8154815290600101906020018083116108cb57829003601f168201915b50505050508152602001600182018054610901906127ab565b80601f016020809104026020016040519081016040528092919081815260200182805461092d906127ab565b801561097a5780601f1061094f5761010080835404028352916020019161097a565b820191906000526020600020905b81548152906001019060200180831161095d57829003601f168201915b505050505081526020016002820160009054906101000a900460ff161515151581525050905080604001516109e4576040517f08c379a00000000000000000000000000000000000000000000000000000000081526004016109db906124f4565b60405180910390fd5b806000015181602001519250925050915091565b610a00611bc9565b600082118015610a1257506000548211155b610a51576040517f08c379a0000000000000000000000000000000000000000000000000000000008152600401610a48906124b4565b60405180910390fd5b600160008381526020019081526020016000206040518061014001604052908160008201548152602001600182018054610a8a906127ab565b80601f0160208091040260200160405190810160405280929190818152602001828054610ab6906127ab565b8015610b035780601f10610ad857610100808354040283529160200191610b03565b820191906000526020600020905b815481529060010190602001808311610ae657829003601f168201915b50505050508152602001600282018054610b1c906127ab565b80601f0160208091040260200160405190810160405280929190818152602001828054610b48906127ab565b8015610b955780601f10610b6a57610100808354040283529160200191610b95565b820191906000526020600020905b815481529060010190602001808311610b7857829003601f168201915b50505050508152602001600382018054610bae906127ab565b80601f0160208091040260200160405190810160405280929190818152602001828054610bda906127ab565b8015610c275780601f10610bfc57610100808354040283529160200191610c27565b820191906000526020600020905b815481529060010190602001808311610c0a57829003601f168201915b50505050508152602001600482018054610c40906127ab565b80601f0160208091040260200160405190810160405280929190818152602001828054610c6c906127ab565b8015610cb95780601f10610c8e57610100808354040283529160200191610cb9565b820191906000526020600020905b815481529060010190602001808311610c9c57829003601f168201915b50505050508152602001600582018054610cd2906127ab565b80601f0160208091040260200160405190810160405280929190818152602001828054610cfe906127ab565b8015610d4b5780601f10610d2057610100808354040283529160200191610d4b565b820191906000526020600020905b815481529060010190602001808311610d2e57829003601f168201915b50505050508152602001600682018054610d64906127ab565b80601f0160208091040260200160405190810160405280929190818152602001828054610d90906127ab565b8015610ddd5780601f10610db257610100808354040283529160200191610ddd565b820191906000526020600020905b815481529060010190602001808311610dc057829003601f168201915b50505050508152602001600782018054610df6906127ab565b80601f0160208091040260200160405190810160405280929190818152602001828054610e22906127ab565b8015610e6f5780601f10610e4457610100808354040283529160200191610e6f565b820191906000526020600020905b815481529060010190602001808311610e5257829003601f168201915b50505050508152602001600882015481526020016009820160009054906101000a900460ff166004811115610ecd577f4e487b7100000000000000000000000000000000000000000000000000000000600052602160045260246000fd5b6004811115610f05577f4e487b7100000000000000000000000000000000000000000000000000000000600052602160045260246000fd5b815250509050919050565b6001602052806000526040600020600091509050806000015490806001018054610f39906127ab565b80601f0160208091040260200160405190810160405280929190818152602001828054610f65906127ab565b8015610fb25780601f10610f8757610100808354040283529160200191610fb2565b820191906000526020600020905b815481529060010190602001808311610f9557829003601f168201915b505050505090806002018054610fc7906127ab565b80601f0160208091040260200160405190810160405280929190818152602001828054610ff3906127ab565b80156110405780601f1061101557610100808354040283529160200191611040565b820191906000526020600020905b81548152906001019060200180831161102357829003601f168201915b505050505090806003018054611055906127ab565b80601f0160208091040260200160405190810160405280929190818152602001828054611081906127ab565b80156110ce5780601f106110a3576101008083540402835291602001916110ce565b820191906000526020600020905b8154815290600101906020018083116110b157829003601f168201915b5050505050908060040180546110e3906127ab565b80601f016020809104026020016040519081016040528092919081815260200182805461110f906127ab565b801561115c5780601f106111315761010080835404028352916020019161115c565b820191906000526020600020905b81548152906001019060200180831161113f57829003601f168201915b505050505090806005018054611171906127ab565b80601f016020809104026020016040519081016040528092919081815260200182805461119d906127ab565b80156111ea5780601f106111bf576101008083540402835291602001916111ea565b820191906000526020600020905b8154815290600101906020018083116111cd57829003601f168201915b5050505050908060060180546111ff906127ab565b80601f016020809104026020016040519081016040528092919081815260200182805461122b906127ab565b80156112785780601f1061124d57610100808354040283529160200191611278565b820191906000526020600020905b81548152906001019060200180831161125b57829003601f168201915b50505050509080600701805461128d906127ab565b80601f01602080910402602001604051908101604052809291908181526020018280546112b9906127ab565b80156113065780601f106112db57610100808354040283529160200191611306565b820191906000526020600020905b8154815290600101906020018083116112e957829003601f168201915b5050505050908060080154908060090160009054906101000a900460ff1690508a565b600260205280600052604060002060009150905080600001805461134c906127ab565b80601f0160208091040260200160405190810160405280929190818152602001828054611378906127ab565b80156113c55780601f1061139a576101008083540402835291602001916113c5565b820191906000526020600020905b8154815290600101906020018083116113a857829003601f168201915b5050505050908060010180546113da906127ab565b80601f0160208091040260200160405190810160405280929190818152602001828054611406906127ab565b80156114535780601f1061142857610100808354040283529160200191611453565b820191906000526020600020905b81548152906001019060200180831161143657829003601f168201915b5050505050908060020160009054906101000a900460ff16905083565b600260003373ffffffffffffffffffffffffffffffffffffffff1673ffffffffffffffffffffffffffffffffffffffff16815260200190815260200160002060020160009054906101000a900460ff166114ff576040517f08c379a00000000000000000000000000000000000000000000000000000000081526004016114f6906124f4565b60405180910390fd5b6040518060400160405280600b81526020017f6469737472696275746f7200000000000000000000000000000000000000000081525080604051602001611546919061236b565b60405160208183030381529060405280519060200120600260003373ffffffffffffffffffffffffffffffffffffffff1673ffffffffffffffffffffffffffffffffffffffff1681526020019081526020016000206001016040516020016115ae9190612382565b6040516020818303038152906040528051906020012014816040516020016115d69190612399565b60405160208183030381529060405290611626576040517f08c379a000000000000000000000000000000000000000000000000000000000815260040161161d91906123f6565b60405180910390fd5b5060008411801561163957506000548411155b611678576040517f08c379a000000000000000000000000000000000000000000000000000000000815260040161166f906124b4565b60405180910390fd5b6000600160008681526020019081526020016000209050838160060190805190602001906116a7929190611b43565b5082816008018190555060028160090160006101000a81548160ff021916908360048111156116ff577f4e487b7100000000000000000000000000000000000000000000000000000000600052602160045260246000fd5b02179055507fdad7092ee1ca215307c34b5dd865bb1f9be7e1f0110d230eaefd78fa4742903e8585604051611735929190612551565b60405180910390a15050505050565b600260003373ffffffffffffffffffffffffffffffffffffffff1673ffffffffffffffffffffffffffffffffffffffff16815260200190815260200160002060020160009054906101000a900460ff166117d3576040517f08c379a00000000000000000000000000000000000000000000000000000000081526004016117ca906124f4565b60405180910390fd5b6040518060400160405280600681526020017f6661726d657200000000000000000000000000000000000000000000000000008152508060405160200161181a919061236b565b60405160208183030381529060405280519060200120600260003373ffffffffffffffffffffffffffffffffffffffff1673ffffffffffffffffffffffffffffffffffffffff1681526020019081526020016000206001016040516020016118829190612382565b6040516020818303038152906040528051906020012014816040516020016118aa9190612399565b604051602081830303815290604052906118fa576040517f08c379a00000000000000000000000000000000000000000000000000000000081526004016118f191906123f6565b60405180910390fd5b5060008081548092919061190d906127dd565b9190505550604051806101400160405280600054815260200186815260200187815260200185815260200184815260200183815260200160405180602001604052806000815250815260200160405180602001604052806000815250815260200160008152602001600060048111156119af577f4e487b7100000000000000000000000000000000000000000000000000000000600052602160045260246000fd5b81525060016000805481526020019081526020016000206000820151816000015560208201518160010190805190602001906119ec929190611b43565b506040820151816002019080519060200190611a09929190611b43565b506060820151816003019080519060200190611a26929190611b43565b506080820151816004019080519060200190611a43929190611b43565b5060a0820151816005019080519060200190611a60929190611b43565b5060c0820151816006019080519060200190611a7d929190611b43565b5060e0820151816007019080519060200190611a9a929190611b43565b5061010082015181600801556101208201518160090160006101000a81548160ff02191690836004811115611af8577f4e487b7100000000000000000000000000000000000000000000000000000000600052602160045260246000fd5b02179055509050507f259101de1f87b04b9ee0332ce5e3cc508014004bf283424aead6cd8692f5cf9860005486604051611b33929190612551565b60405180910390a1505050505050565b828054611b4f906127ab565b90600052602060002090601f016020900481019282611b715760008555611bb8565b82601f10611b8a57805160ff1916838001178555611bb8565b82800160010185558215611bb8579182015b82811115611bb7578251825591602001919060010190611b9c565b5b509050611bc59190611c54565b5090565b60405180610140016040528060008152602001606081526020016060815260200160608152602001606081526020016060815260200160608152602001606081526020016000815260200160006004811115611c4e577f4e487b7100000000000000000000000000000000000000000000000000000000600052602160045260246000fd5b81525090565b5b80821115611c6d576000816000905550600101611c55565b5090565b6000611c84611c7f8461267f565b61264e565b905082815260208101848484011115611c9c57600080fd5b611ca7848285612769565b509392505050565b600081359050611cbe81612907565b92915050565b600082601f830112611cd557600080fd5b8135611ce5848260208601611c71565b91505092915050565b600081359050611cfd8161291e565b92915050565b600060208284031215611d1557600080fd5b6000611d2384828501611caf565b91505092915050565b60008060408385031215611d3f57600080fd5b600083013567ffffffffffffffff811115611d5957600080fd5b611d6585828601611cc4565b925050602083013567ffffffffffffffff811115611d8257600080fd5b611d8e85828601611cc4565b9150509250929050565b600080600080600060a08688031215611db057600080fd5b600086013567ffffffffffffffff811115611dca57600080fd5b611dd688828901611cc4565b955050602086013567ffffffffffffffff811115611df357600080fd5b611dff88828901611cc4565b945050604086013567ffffffffffffffff811115611e1c57600080fd5b611e2888828901611cc4565b935050606086013567ffffffffffffffff811115611e4557600080fd5b611e5188828901611cc4565b925050608086013567ffffffffffffffff811115611e6e57600080fd5b611e7a88828901611cc4565b9150509295509295909350565b600060208284031215611e9957600080fd5b6000611ea784828501611cee565b91505092915050565b60008060408385031215611ec357600080fd5b6000611ed185828601611cee565b925050602083013567ffffffffffffffff811115611eee57600080fd5b611efa85828601611cc4565b9150509250929050565b600080600060608486031215611f1957600080fd5b6000611f2786828701611cee565b935050602084013567ffffffffffffffff811115611f4457600080fd5b611f5086828701611cc4565b9250506040611f6186828701611cee565b9150509250925092565b611f74816126fc565b82525050565b611f838161270e565b82525050565b611f9281612757565b82525050565b611fa181612757565b82525050565b6000611fb2826126c4565b611fbc81856126cf565b9350611fcc818560208601612778565b611fd5816128e2565b840191505092915050565b6000611feb826126c4565b611ff581856126e0565b9350612005818560208601612778565b61200e816128e2565b840191505092915050565b6000612024826126c4565b61202e81856126f1565b935061203e818560208601612778565b80840191505092915050565b60008154612057816127ab565b61206181866126f1565b9450600182166000811461207c576001811461208d576120c0565b60ff198316865281860193506120c0565b612096856126af565b60005b838110156120b857815481890152600182019150602081019050612099565b838801955050505b50505092915050565b60006120d6600d836126e0565b91507f496e76616c696420726f6c652e000000000000000000000000000000000000006000830152602082019050919050565b60006121166013836126e0565b91507f496e76616c69642070726f647563742049442e000000000000000000000000006000830152602082019050919050565b6000612156601a836126f1565b91507f732063616e20706572666f726d207468697320616374696f6e2e0000000000006000830152601a82019050919050565b60006121966018836126e0565b91507f5573657220616c726561647920726567697374657265642e00000000000000006000830152602082019050919050565b60006121d66014836126e0565b91507f55736572206e6f7420726567697374657265642e0000000000000000000000006000830152602082019050919050565b60006122166005836126f1565b91507f4f6e6c79200000000000000000000000000000000000000000000000000000006000830152600582019050919050565b600061014083016000830151612262600086018261234d565b506020830151848203602086015261227a8282611fa7565b915050604083015184820360408601526122948282611fa7565b915050606083015184820360608601526122ae8282611fa7565b915050608083015184820360808601526122c88282611fa7565b91505060a083015184820360a08601526122e28282611fa7565b91505060c083015184820360c08601526122fc8282611fa7565b91505060e083015184820360e08601526123168282611fa7565b91505061010083015161232d61010086018261234d565b50610120830151612342610120860182611f89565b508091505092915050565b6123568161274d565b82525050565b6123658161274d565b82525050565b60006123778284612019565b915081905092915050565b600061238e828461204a565b915081905092915050565b60006123a482612209565b91506123b08284612019565b91506123bb82612149565b915081905092915050565b60006040820190506123db6000830185611f6b565b81810360208301526123ed8184611fe0565b90509392505050565b600060208201905081810360008301526124108184611fe0565b905092915050565b600060408201905081810360008301526124328185611fe0565b905081810360208301526124468184611fe0565b90509392505050565b600060608201905081810360008301526124698186611fe0565b9050818103602083015261247d8185611fe0565b905061248c6040830184611f7a565b949350505050565b600060208201905081810360008301526124ad816120c9565b9050919050565b600060208201905081810360008301526124cd81612109565b9050919050565b600060208201905081810360008301526124ed81612189565b9050919050565b6000602082019050818103600083015261250d816121c9565b9050919050565b6000602082019050818103600083015261252e8184612249565b905092915050565b600060208201905061254b600083018461235c565b92915050565b6000604082019050612566600083018561235c565b81810360208301526125788184611fe0565b90509392505050565b600061014082019050612597600083018d61235c565b81810360208301526125a9818c611fe0565b905081810360408301526125bd818b611fe0565b905081810360608301526125d1818a611fe0565b905081810360808301526125e58189611fe0565b905081810360a08301526125f98188611fe0565b905081810360c083015261260d8187611fe0565b905081810360e08301526126218186611fe0565b905061263161010083018561235c565b61263f610120830184611f98565b9b9a5050505050505050505050565b6000604051905081810181811067ffffffffffffffff82111715612675576126746128b3565b5b8060405250919050565b600067ffffffffffffffff82111561269a576126996128b3565b5b601f19601f8301169050602081019050919050565b60008190508160005260206000209050919050565b600081519050919050565b600082825260208201905092915050565b600082825260208201905092915050565b600081905092915050565b60006127078261272d565b9050919050565b60008115159050919050565b6000819050612728826128f3565b919050565b600073ffffffffffffffffffffffffffffffffffffffff82169050919050565b6000819050919050565b60006127628261271a565b9050919050565b82818337600083830152505050565b60005b8381101561279657808201518184015260208101905061277b565b838111156127a5576000848401525b50505050565b600060028204905060018216806127c357607f821691505b602082108114156127d7576127d6612884565b5b50919050565b60006127e88261274d565b91507fffffffffffffffffffffffffffffffffffffffffffffffffffffffffffffffff82141561281b5761281a612826565b5b600182019050919050565b7f4e487b7100000000000000000000000000000000000000000000000000000000600052601160045260246000fd5b7f4e487b7100000000000000000000000000000000000000000000000000000000600052602160045260246000fd5b7f4e487b7100000000000000000000000000000000000000000000000000000000600052602260045260246000fd5b7f4e487b7100000000000000000000000000000000000000000000000000000000600052604160045260246000fd5b6000601f19601f8301169050919050565b6005811061290457612903612855565b5b50565b612910816126fc565b811461291b57600080fd5b50565b6129278161274d565b811461293257600080fd5b5056fea264697066735822122048c8c0badf8ea8295e73f69643ddc3ad289c8158b9d2ba86b7f87b436ffc388a64736f6c63430008000033",
  "immutableReferences": {},
  "source": "// SPDX-License-Identifier: MIT\r\npragma solidity ^0.8.0;\r\n\r\ncontract Test01 {\r\n\r\n    // S dng enum cho trng thi sn phm\r\n    enum ProductStatus { Planted, Harvested, Delivered, Received, Completed }\r\n    \r\n    // Cu trc d liu lu thng tin ca nng sn\r\n    struct Product {\r\n        uint256 productId;\r\n        string productName;\r\n        string imageHash;\r\n        string plantingDate;\r\n        string harvestDate;\r\n        string farmerName;\r\n        string distributorName;\r\n        string retailerName;\r\n        uint256 productWeight;\r\n        ProductStatus status;\r\n    }\r\n\r\n    // Cu trc d liu cho ngi dng\r\n    struct User {\r\n        string userName;\r\n        string role; // \"farmer\", \"distributor\", \"retailer\", \"consumer\"\r\n        bool isRegistered;\r\n    }\r\n\r\n    // Bin m s lng nng sn  to productId duy nht\r\n    uint256 public productCounter;\r\n\r\n    // Mapping t productId n sn phm\r\n    mapping(uint256 => Product) public products;\r\n\r\n    // Mapping t a ch ngi dng n thng tin ngi dng\r\n    mapping(address => User) public users;\r\n\r\n    function getUserInfo(address _userAddress) public view returns (string memory, string memory) {\r\n    User memory user = users[_userAddress];\r\n    require(user.isRegistered, \"User not registered.\");\r\n    return (user.userName, user.role);\r\n}\r\n\r\n    // S kin\r\n    event FarmerRegistered(address farmer, string farmerName);\r\n    event ProductAdded(uint256 productId, string productName);\r\n    event ProductUpdated(uint256 productId, string updatedBy);\r\n\r\n    // ng k ti khon cho ngi dng (Farmer, Distributor, Retailer, Consumer)\r\n    function registerUser(string memory _userName, string memory _role) public {\r\n        require(!users[msg.sender].isRegistered, \"User already registered.\");\r\n        require(\r\n            keccak256(abi.encodePacked(_role)) == keccak256(\"farmer\") ||\r\n            keccak256(abi.encodePacked(_role)) == keccak256(\"distributor\") ||\r\n            keccak256(abi.encodePacked(_role)) == keccak256(\"retailer\") ||\r\n            keccak256(abi.encodePacked(_role)) == keccak256(\"consumer\"),\r\n            \"Invalid role.\"\r\n        );\r\n\r\n        users[msg.sender] = User({\r\n            userName: _userName,\r\n            role: _role,\r\n            isRegistered: true\r\n        });\r\n\r\n        if (keccak256(abi.encodePacked(_role)) == keccak256(\"farmer\")) {\r\n            emit FarmerRegistered(msg.sender, _userName);\r\n        }\r\n    }\r\n\r\n    // Modifier kim tra ngi dng  ng k\r\n    modifier onlyRegistered() {\r\n        require(users[msg.sender].isRegistered, \"User not registered.\");\r\n        _;\r\n    }\r\n\r\n    // Modifier kim tra vai tr ngi dng\r\n    modifier onlyRole(string memory _role) {\r\n        require(keccak256(abi.encodePacked(users[msg.sender].role)) == keccak256(abi.encodePacked(_role)), \r\n                string(abi.encodePacked(\"Only \", _role, \"s can perform this action.\")));\r\n        _;\r\n    }\r\n\r\n    // Nng dn thm thng tin nng sn\r\n    function addProduct(\r\n        string memory _imageHash,\r\n        string memory _productName,\r\n        string memory _plantingDate,\r\n        string memory _harvestDate,\r\n        string memory _farmerName\r\n    ) public onlyRegistered onlyRole(\"farmer\") {\r\n        productCounter++;\r\n        products[productCounter] = Product({\r\n            productId: productCounter,\r\n            productName: _productName,\r\n            imageHash: _imageHash,\r\n            plantingDate: _plantingDate,\r\n            harvestDate: _harvestDate,\r\n            farmerName: _farmerName,\r\n            distributorName: \"\",\r\n            retailerName: \"\",\r\n            productWeight: 0,\r\n            status: ProductStatus.Planted\r\n        });\r\n\r\n        emit ProductAdded(productCounter, _productName);\r\n    }\r\n\r\n    // Nh phn phi cp nht thng tin sn phm\r\n    function updateDistributorInfo(\r\n        uint256 _productId,\r\n        string memory _distributorName,\r\n        uint256 _productWeight\r\n    ) public onlyRegistered onlyRole(\"distributor\") {\r\n        require(_productId > 0 && _productId <= productCounter, \"Invalid product ID.\");\r\n\r\n        Product storage product = products[_productId];\r\n        product.distributorName = _distributorName;\r\n        product.productWeight = _productWeight;\r\n        product.status = ProductStatus.Delivered;\r\n\r\n        emit ProductUpdated(_productId, _distributorName);\r\n    }\r\n\r\n    // Nh bn l cp nht thng tin sn phm\r\n    function updateRetailerInfo(\r\n        uint256 _productId,\r\n        string memory _retailerName\r\n    ) public onlyRegistered onlyRole(\"retailer\") {\r\n        require(_productId > 0 && _productId <= productCounter, \"Invalid product ID.\");\r\n\r\n        Product storage product = products[_productId];\r\n        product.retailerName = _retailerName;\r\n        product.status = ProductStatus.Received;\r\n\r\n        emit ProductUpdated(_productId, _retailerName);\r\n    }\r\n\r\n    // Ngi tiu dng truy xut ngun gc sn phm\r\n    function getProductInfo(uint256 _productId) public view returns (Product memory) {\r\n        require(_productId > 0 && _productId <= productCounter, \"Invalid product ID.\");\r\n        return products[_productId];\r\n    }\r\n}\r\n",
  "sourcePath": "D:\\atest\\contracts\\Test01.sol",
  "compiler": {
    "name": "solc",
    "version": "0.8.0+commit.c7dfd78e.Emscripten.clang"
  },
  "schemaVersion": "3.4.16",
  "updatedAt": "2024-10-09T08:57:30.973Z",
  "networkType": "ethereum",
  "devdoc": {
    "kind": "dev",
    "methods": {},
    "version": 1
  },
  "userdoc": {
    "kind": "user",
    "methods": {},
    "version": 1
  }
}